{
  "_format": "hh-sol-artifact-1",
  "contractName": "MerkleTree",
  "sourceName": "contracts/MerkleTree.sol",
  "abi": [
    {
      "inputs": [
        {
          "internalType": "uint256",
          "name": "_size",
          "type": "uint256"
        }
      ],
      "stateMutability": "nonpayable",
      "type": "constructor"
    },
    {
      "anonymous": false,
      "inputs": [
        {
          "indexed": true,
          "internalType": "address",
          "name": "previousOwner",
          "type": "address"
        },
        {
          "indexed": true,
          "internalType": "address",
          "name": "newOwner",
          "type": "address"
        }
      ],
      "name": "OwnershipTransferred",
      "type": "event"
    },
    {
      "inputs": [
        {
          "internalType": "bytes32",
          "name": "leaf",
          "type": "bytes32"
        }
      ],
      "name": "add",
      "outputs": [
        {
          "internalType": "bytes32",
          "name": "",
          "type": "bytes32"
        }
      ],
      "stateMutability": "nonpayable",
      "type": "function"
    },
    {
      "inputs": [],
      "name": "owner",
      "outputs": [
        {
          "internalType": "address",
          "name": "",
          "type": "address"
        }
      ],
      "stateMutability": "view",
      "type": "function"
    },
    {
      "inputs": [],
      "name": "renounceOwnership",
      "outputs": [],
      "stateMutability": "nonpayable",
      "type": "function"
    },
    {
      "inputs": [
        {
          "internalType": "address",
          "name": "newOwner",
          "type": "address"
        }
      ],
      "name": "transferOwnership",
      "outputs": [],
      "stateMutability": "nonpayable",
      "type": "function"
    },
    {
      "inputs": [
        {
          "internalType": "bytes32",
          "name": "leaf",
          "type": "bytes32"
        },
        {
          "internalType": "uint256",
          "name": "index",
          "type": "uint256"
        }
      ],
      "name": "update",
      "outputs": [
        {
          "internalType": "bytes32",
          "name": "",
          "type": "bytes32"
        }
      ],
      "stateMutability": "nonpayable",
      "type": "function"
    }
  ],
  "bytecode": "0x60806040523480156200001157600080fd5b5060405162000e8538038062000e85833981810160405281019062000037919062000242565b620000576200004b620000ee60201b60201c565b620000f660201b60201c565b8067ffffffffffffffff81111562000098577f4e487b7100000000000000000000000000000000000000000000000000000000600052604160045260246000fd5b604051908082528060200260200182016040528015620000c75781602001602082028036833780820191505090505b5060019080519060200190620000df929190620001ba565b50806002819055505062000292565b600033905090565b60008060009054906101000a900473ffffffffffffffffffffffffffffffffffffffff169050816000806101000a81548173ffffffffffffffffffffffffffffffffffffffff021916908373ffffffffffffffffffffffffffffffffffffffff1602179055508173ffffffffffffffffffffffffffffffffffffffff168173ffffffffffffffffffffffffffffffffffffffff167f8be0079c531659141344cd1fd0a4f28419497f9722a3daafe3b4186f6b6457e060405160405180910390a35050565b828054828255906000526020600020908101928215620001f9579160200282015b82811115620001f8578251825591602001919060010190620001db565b5b5090506200020891906200020c565b5090565b5b80821115620002275760008160009055506001016200020d565b5090565b6000815190506200023c8162000278565b92915050565b6000602082840312156200025557600080fd5b600062000265848285016200022b565b91505092915050565b6000819050919050565b62000283816200026e565b81146200028f57600080fd5b50565b610be380620002a26000396000f3fe608060405234801561001057600080fd5b50600436106100575760003560e01c8063446bffba1461005c578063715018a61461008c5780638da5cb5b14610096578063a58bb84a146100b4578063f2fde38b146100e4575b600080fd5b610076600480360381019061007191906107df565b610100565b6040516100839190610906565b60405180910390f35b6100946101b6565b005b61009e61023e565b6040516100ab91906108eb565b60405180910390f35b6100ce60048036038101906100c99190610808565b610267565b6040516100db9190610906565b60405180910390f35b6100fe60048036038101906100f991906107b6565b61033e565b005b600061010a610436565b73ffffffffffffffffffffffffffffffffffffffff1661012861023e565b73ffffffffffffffffffffffffffffffffffffffff161461017e576040517f08c379a000000000000000000000000000000000000000000000000000000000815260040161017590610941565b60405180910390fd5b60018290806001815401808255809150506001900390600052602060002001600090919091909150556101af61043e565b9050919050565b6101be610436565b73ffffffffffffffffffffffffffffffffffffffff166101dc61023e565b73ffffffffffffffffffffffffffffffffffffffff1614610232576040517f08c379a000000000000000000000000000000000000000000000000000000000815260040161022990610941565b60405180910390fd5b61023c60006106b3565b565b60008060009054906101000a900473ffffffffffffffffffffffffffffffffffffffff16905090565b6000610271610436565b73ffffffffffffffffffffffffffffffffffffffff1661028f61023e565b73ffffffffffffffffffffffffffffffffffffffff16146102e5576040517f08c379a00000000000000000000000000000000000000000000000000000000081526004016102dc90610941565b60405180910390fd5b8260018381548110610320577f4e487b7100000000000000000000000000000000000000000000000000000000600052603260045260246000fd5b906000526020600020018190555061033661043e565b905092915050565b610346610436565b73ffffffffffffffffffffffffffffffffffffffff1661036461023e565b73ffffffffffffffffffffffffffffffffffffffff16146103ba576040517f08c379a00000000000000000000000000000000000000000000000000000000081526004016103b190610941565b60405180910390fd5b600073ffffffffffffffffffffffffffffffffffffffff168173ffffffffffffffffffffffffffffffffffffffff16141561042a576040517f08c379a000000000000000000000000000000000000000000000000000000000815260040161042190610921565b60405180910390fd5b610433816106b3565b50565b600033905090565b600080600180548060200260200160405190810160405280929190818152602001828054801561048d57602002820191906000526020600020905b815481526020019060010190808311610479575b505050505090506000600280546104a491906109c8565b67ffffffffffffffff8111156104e3577f4e487b7100000000000000000000000000000000000000000000000000000000600052604160045260246000fd5b6040519080825280602002602001820160405280156105115781602001602082028036833780820191505090505b5090506000600254905060005b60018211156106685760005b8281101561064c5784818151811061056b577f4e487b7100000000000000000000000000000000000000000000000000000000600052603260045260246000fd5b6020026020010151856001836105819190610972565b815181106105b8577f4e487b7100000000000000000000000000000000000000000000000000000000600052603260045260246000fd5b60200260200101516040516020016105d19291906108bf565b60405160208183030381529060405280519060200120848381518110610620577f4e487b7100000000000000000000000000000000000000000000000000000000600052603260045260246000fd5b6020026020010181815250508161063690610a3f565b91506002816106459190610972565b905061052a565b508293506000905060028261066191906109c8565b915061051e565b836000815181106106a2577f4e487b7100000000000000000000000000000000000000000000000000000000600052603260045260246000fd5b602002602001015194505050505090565b60008060009054906101000a900473ffffffffffffffffffffffffffffffffffffffff169050816000806101000a81548173ffffffffffffffffffffffffffffffffffffffff021916908373ffffffffffffffffffffffffffffffffffffffff1602179055508173ffffffffffffffffffffffffffffffffffffffff168173ffffffffffffffffffffffffffffffffffffffff167f8be0079c531659141344cd1fd0a4f28419497f9722a3daafe3b4186f6b6457e060405160405180910390a35050565b60008135905061078681610b68565b92915050565b60008135905061079b81610b7f565b92915050565b6000813590506107b081610b96565b92915050565b6000602082840312156107c857600080fd5b60006107d684828501610777565b91505092915050565b6000602082840312156107f157600080fd5b60006107ff8482850161078c565b91505092915050565b6000806040838503121561081b57600080fd5b60006108298582860161078c565b925050602061083a858286016107a1565b9150509250929050565b61084d816109f9565b82525050565b61085c81610a0b565b82525050565b61087361086e82610a0b565b610a88565b82525050565b6000610886602683610961565b915061089182610af0565b604082019050919050565b60006108a9602083610961565b91506108b482610b3f565b602082019050919050565b60006108cb8285610862565b6020820191506108db8284610862565b6020820191508190509392505050565b60006020820190506109006000830184610844565b92915050565b600060208201905061091b6000830184610853565b92915050565b6000602082019050818103600083015261093a81610879565b9050919050565b6000602082019050818103600083015261095a8161089c565b9050919050565b600082825260208201905092915050565b600061097d82610a35565b915061098883610a35565b9250827fffffffffffffffffffffffffffffffffffffffffffffffffffffffffffffffff038211156109bd576109bc610a92565b5b828201905092915050565b60006109d382610a35565b91506109de83610a35565b9250826109ee576109ed610ac1565b5b828204905092915050565b6000610a0482610a15565b9050919050565b6000819050919050565b600073ffffffffffffffffffffffffffffffffffffffff82169050919050565b6000819050919050565b6000610a4a82610a35565b91507fffffffffffffffffffffffffffffffffffffffffffffffffffffffffffffffff821415610a7d57610a7c610a92565b5b600182019050919050565b6000819050919050565b7f4e487b7100000000000000000000000000000000000000000000000000000000600052601160045260246000fd5b7f4e487b7100000000000000000000000000000000000000000000000000000000600052601260045260246000fd5b7f4f776e61626c653a206e6577206f776e657220697320746865207a65726f206160008201527f6464726573730000000000000000000000000000000000000000000000000000602082015250565b7f4f776e61626c653a2063616c6c6572206973206e6f7420746865206f776e6572600082015250565b610b71816109f9565b8114610b7c57600080fd5b50565b610b8881610a0b565b8114610b9357600080fd5b50565b610b9f81610a35565b8114610baa57600080fd5b5056fea26469706673582212206656b366b0cd03c1d803b21e3141d9d6c0adf5df3c8a812a5a638d3929d128d164736f6c63430008010033",
  "linkReferences": {},
  "deployedLinkReferences": {}
}