{
  "_format": "hh-sol-artifact-1",
  "contractName": "MerkleNFT",
  "sourceName": "contracts/MerkleNFT.sol",
  "abi": [
    {
      "inputs": [],
      "stateMutability": "nonpayable",
      "type": "constructor"
    },
    {
      "anonymous": false,
      "inputs": [
        {
          "indexed": true,
          "internalType": "address",
          "name": "owner",
          "type": "address"
        },
        {
          "indexed": true,
          "internalType": "address",
          "name": "approved",
          "type": "address"
        },
        {
          "indexed": true,
          "internalType": "uint256",
          "name": "tokenId",
          "type": "uint256"
        }
      ],
      "name": "Approval",
      "type": "event"
    },
    {
      "anonymous": false,
      "inputs": [
        {
          "indexed": true,
          "internalType": "address",
          "name": "owner",
          "type": "address"
        },
        {
          "indexed": true,
          "internalType": "address",
          "name": "operator",
          "type": "address"
        },
        {
          "indexed": false,
          "internalType": "bool",
          "name": "approved",
          "type": "bool"
        }
      ],
      "name": "ApprovalForAll",
      "type": "event"
    },
    {
      "anonymous": false,
      "inputs": [
        {
          "indexed": true,
          "internalType": "address",
          "name": "previousOwner",
          "type": "address"
        },
        {
          "indexed": true,
          "internalType": "address",
          "name": "newOwner",
          "type": "address"
        }
      ],
      "name": "OwnershipTransferred",
      "type": "event"
    },
    {
      "anonymous": false,
      "inputs": [
        {
          "indexed": true,
          "internalType": "address",
          "name": "from",
          "type": "address"
        },
        {
          "indexed": true,
          "internalType": "address",
          "name": "to",
          "type": "address"
        },
        {
          "indexed": true,
          "internalType": "uint256",
          "name": "tokenId",
          "type": "uint256"
        }
      ],
      "name": "Transfer",
      "type": "event"
    },
    {
      "inputs": [
        {
          "internalType": "address",
          "name": "to",
          "type": "address"
        },
        {
          "internalType": "uint256",
          "name": "tokenId",
          "type": "uint256"
        }
      ],
      "name": "approve",
      "outputs": [],
      "stateMutability": "nonpayable",
      "type": "function"
    },
    {
      "inputs": [
        {
          "internalType": "address",
          "name": "owner",
          "type": "address"
        }
      ],
      "name": "balanceOf",
      "outputs": [
        {
          "internalType": "uint256",
          "name": "",
          "type": "uint256"
        }
      ],
      "stateMutability": "view",
      "type": "function"
    },
    {
      "inputs": [
        {
          "internalType": "uint256",
          "name": "tokenId",
          "type": "uint256"
        }
      ],
      "name": "getApproved",
      "outputs": [
        {
          "internalType": "address",
          "name": "",
          "type": "address"
        }
      ],
      "stateMutability": "view",
      "type": "function"
    },
    {
      "inputs": [],
      "name": "getRoot",
      "outputs": [
        {
          "internalType": "bytes32",
          "name": "",
          "type": "bytes32"
        }
      ],
      "stateMutability": "view",
      "type": "function"
    },
    {
      "inputs": [
        {
          "internalType": "address",
          "name": "owner",
          "type": "address"
        },
        {
          "internalType": "address",
          "name": "operator",
          "type": "address"
        }
      ],
      "name": "isApprovedForAll",
      "outputs": [
        {
          "internalType": "bool",
          "name": "",
          "type": "bool"
        }
      ],
      "stateMutability": "view",
      "type": "function"
    },
    {
      "inputs": [
        {
          "internalType": "address",
          "name": "_to",
          "type": "address"
        }
      ],
      "name": "mintNFT",
      "outputs": [],
      "stateMutability": "nonpayable",
      "type": "function"
    },
    {
      "inputs": [],
      "name": "name",
      "outputs": [
        {
          "internalType": "string",
          "name": "",
          "type": "string"
        }
      ],
      "stateMutability": "view",
      "type": "function"
    },
    {
      "inputs": [],
      "name": "owner",
      "outputs": [
        {
          "internalType": "address",
          "name": "",
          "type": "address"
        }
      ],
      "stateMutability": "view",
      "type": "function"
    },
    {
      "inputs": [
        {
          "internalType": "uint256",
          "name": "tokenId",
          "type": "uint256"
        }
      ],
      "name": "ownerOf",
      "outputs": [
        {
          "internalType": "address",
          "name": "",
          "type": "address"
        }
      ],
      "stateMutability": "view",
      "type": "function"
    },
    {
      "inputs": [],
      "name": "renounceOwnership",
      "outputs": [],
      "stateMutability": "nonpayable",
      "type": "function"
    },
    {
      "inputs": [
        {
          "internalType": "address",
          "name": "from",
          "type": "address"
        },
        {
          "internalType": "address",
          "name": "to",
          "type": "address"
        },
        {
          "internalType": "uint256",
          "name": "tokenId",
          "type": "uint256"
        }
      ],
      "name": "safeTransferFrom",
      "outputs": [],
      "stateMutability": "nonpayable",
      "type": "function"
    },
    {
      "inputs": [
        {
          "internalType": "address",
          "name": "from",
          "type": "address"
        },
        {
          "internalType": "address",
          "name": "to",
          "type": "address"
        },
        {
          "internalType": "uint256",
          "name": "tokenId",
          "type": "uint256"
        },
        {
          "internalType": "bytes",
          "name": "_data",
          "type": "bytes"
        }
      ],
      "name": "safeTransferFrom",
      "outputs": [],
      "stateMutability": "nonpayable",
      "type": "function"
    },
    {
      "inputs": [
        {
          "internalType": "address",
          "name": "operator",
          "type": "address"
        },
        {
          "internalType": "bool",
          "name": "approved",
          "type": "bool"
        }
      ],
      "name": "setApprovalForAll",
      "outputs": [],
      "stateMutability": "nonpayable",
      "type": "function"
    },
    {
      "inputs": [
        {
          "internalType": "bytes4",
          "name": "interfaceId",
          "type": "bytes4"
        }
      ],
      "name": "supportsInterface",
      "outputs": [
        {
          "internalType": "bool",
          "name": "",
          "type": "bool"
        }
      ],
      "stateMutability": "view",
      "type": "function"
    },
    {
      "inputs": [],
      "name": "symbol",
      "outputs": [
        {
          "internalType": "string",
          "name": "",
          "type": "string"
        }
      ],
      "stateMutability": "view",
      "type": "function"
    },
    {
      "inputs": [
        {
          "internalType": "uint256",
          "name": "tokenID",
          "type": "uint256"
        }
      ],
      "name": "tokenURI",
      "outputs": [
        {
          "internalType": "string",
          "name": "",
          "type": "string"
        }
      ],
      "stateMutability": "view",
      "type": "function"
    },
    {
      "inputs": [
        {
          "internalType": "address",
          "name": "from",
          "type": "address"
        },
        {
          "internalType": "address",
          "name": "to",
          "type": "address"
        },
        {
          "internalType": "uint256",
          "name": "tokenId",
          "type": "uint256"
        }
      ],
      "name": "transferFrom",
      "outputs": [],
      "stateMutability": "nonpayable",
      "type": "function"
    },
    {
      "inputs": [
        {
          "internalType": "address",
          "name": "newOwner",
          "type": "address"
        }
      ],
      "name": "transferOwnership",
      "outputs": [],
      "stateMutability": "nonpayable",
      "type": "function"
    }
  ],
  "bytecode": "0x608060405260646009553480156200001657600080fd5b506040518060400160405280600c81526020017f4d65726b6c6520546f6b656e00000000000000000000000000000000000000008152506040518060400160405280600481526020017f4d45524b0000000000000000000000000000000000000000000000000000000081525081600090805190602001906200009b9291906200022e565b508060019080519060200190620000b49291906200022e565b505050620000d7620000cb6200016060201b60201c565b6200016860201b60201c565b6000600881905550600954604051620000f090620002bf565b620000fc9190620002fd565b604051809103906000f08015801562000119573d6000803e3d6000fd5b50600b60006101000a81548173ffffffffffffffffffffffffffffffffffffffff021916908373ffffffffffffffffffffffffffffffffffffffff16021790555062000389565b600033905090565b6000600760009054906101000a900473ffffffffffffffffffffffffffffffffffffffff16905081600760006101000a81548173ffffffffffffffffffffffffffffffffffffffff021916908373ffffffffffffffffffffffffffffffffffffffff1602179055508173ffffffffffffffffffffffffffffffffffffffff168173ffffffffffffffffffffffffffffffffffffffff167f8be0079c531659141344cd1fd0a4f28419497f9722a3daafe3b4186f6b6457e060405160405180910390a35050565b8280546200023c9062000324565b90600052602060002090601f016020900481019282620002605760008555620002ac565b82601f106200027b57805160ff1916838001178555620002ac565b82800160010185558215620002ac579182015b82811115620002ab5782518255916020019190600101906200028e565b5b509050620002bb9190620002cd565b5090565b610e85806200370b83390190565b5b80821115620002e8576000816000905550600101620002ce565b5090565b620002f7816200031a565b82525050565b6000602082019050620003146000830184620002ec565b92915050565b6000819050919050565b600060028204905060018216806200033d57607f821691505b602082108114156200035457620003536200035a565b5b50919050565b7f4e487b7100000000000000000000000000000000000000000000000000000000600052602260045260246000fd5b61337280620003996000396000f3fe608060405234801561001057600080fd5b50600436106101165760003560e01c806370a08231116100a2578063a22cb46511610071578063a22cb465146102cd578063b88d4fde146102e9578063c87b56dd14610305578063e985e9c514610335578063f2fde38b1461036557610116565b806370a0823114610257578063715018a6146102875780638da5cb5b1461029157806395d89b41146102af57610116565b806323b872dd116100e957806323b872dd146101b557806342842e0e146101d157806354ba0f27146101ed5780635ca1e165146102095780636352211e1461022757610116565b806301ffc9a71461011b57806306fdde031461014b578063081812fc14610169578063095ea7b314610199575b600080fd5b610135600480360381019061013091906120a4565b610381565b604051610142919061264f565b60405180910390f35b610153610463565b6040516101609190612685565b60405180910390f35b610183600480360381019061017e91906120f6565b6104f5565b60405161019091906125e8565b60405180910390f35b6101b360048036038101906101ae919061203f565b61057a565b005b6101cf60048036038101906101ca9190611f39565b610692565b005b6101eb60048036038101906101e69190611f39565b6106f2565b005b61020760048036038101906102029190611ed4565b610712565b005b610211610841565b60405161021e919061266a565b60405180910390f35b610241600480360381019061023c91906120f6565b61084b565b60405161024e91906125e8565b60405180910390f35b610271600480360381019061026c9190611ed4565b6108fd565b60405161027e91906128a7565b60405180910390f35b61028f6109b5565b005b610299610a3d565b6040516102a691906125e8565b60405180910390f35b6102b7610a67565b6040516102c49190612685565b60405180910390f35b6102e760048036038101906102e29190612003565b610af9565b005b61030360048036038101906102fe9190611f88565b610b0f565b005b61031f600480360381019061031a91906120f6565b610b71565b60405161032c9190612685565b60405180910390f35b61034f600480360381019061034a9190611efd565b610c16565b60405161035c919061264f565b60405180910390f35b61037f600480360381019061037a9190611ed4565b610caa565b005b60007f80ac58cd000000000000000000000000000000000000000000000000000000007bffffffffffffffffffffffffffffffffffffffffffffffffffffffff1916827bffffffffffffffffffffffffffffffffffffffffffffffffffffffff1916148061044c57507f5b5e139f000000000000000000000000000000000000000000000000000000007bffffffffffffffffffffffffffffffffffffffffffffffffffffffff1916827bffffffffffffffffffffffffffffffffffffffffffffffffffffffff1916145b8061045c575061045b82610da2565b5b9050919050565b60606000805461047290612b30565b80601f016020809104026020016040519081016040528092919081815260200182805461049e90612b30565b80156104eb5780601f106104c0576101008083540402835291602001916104eb565b820191906000526020600020905b8154815290600101906020018083116104ce57829003601f168201915b5050505050905090565b600061050082610e0c565b61053f576040517f08c379a000000000000000000000000000000000000000000000000000000000815260040161053690612827565b60405180910390fd5b6004600083815260200190815260200160002060009054906101000a900473ffffffffffffffffffffffffffffffffffffffff169050919050565b60006105858261084b565b90508073ffffffffffffffffffffffffffffffffffffffff168373ffffffffffffffffffffffffffffffffffffffff1614156105f6576040517f08c379a00000000000000000000000000000000000000000000000000000000081526004016105ed90612867565b60405180910390fd5b8073ffffffffffffffffffffffffffffffffffffffff16610615610e78565b73ffffffffffffffffffffffffffffffffffffffff16148061064457506106438161063e610e78565b610c16565b5b610683576040517f08c379a000000000000000000000000000000000000000000000000000000000815260040161067a906127a7565b60405180910390fd5b61068d8383610e80565b505050565b6106a361069d610e78565b82610f39565b6106e2576040517f08c379a00000000000000000000000000000000000000000000000000000000081526004016106d990612887565b60405180910390fd5b6106ed838383611017565b505050565b61070d83838360405180602001604052806000815250610b0f565b505050565b6009546001600854610724919061295b565b1115610765576040517f08c379a000000000000000000000000000000000000000000000000000000000815260040161075c90612767565b60405180910390fd5b6008600081548092919061077890612b93565b91905055506107898160085461127e565b610794600854611458565b61083e81600854600c6000600854815260200190815260200160002080546107bb90612b30565b80601f01602080910402602001604051908101604052809291908181526020018280546107e790612b30565b80156108345780601f1061080957610100808354040283529160200191610834565b820191906000526020600020905b81548152906001019060200180831161081757829003601f168201915b50505050506114d7565b50565b6000600a54905090565b6000806002600084815260200190815260200160002060009054906101000a900473ffffffffffffffffffffffffffffffffffffffff169050600073ffffffffffffffffffffffffffffffffffffffff168173ffffffffffffffffffffffffffffffffffffffff1614156108f4576040517f08c379a00000000000000000000000000000000000000000000000000000000081526004016108eb906127e7565b60405180910390fd5b80915050919050565b60008073ffffffffffffffffffffffffffffffffffffffff168273ffffffffffffffffffffffffffffffffffffffff16141561096e576040517f08c379a0000000000000000000000000000000000000000000000000000000008152600401610965906127c7565b60405180910390fd5b600360008373ffffffffffffffffffffffffffffffffffffffff1673ffffffffffffffffffffffffffffffffffffffff168152602001908152602001600020549050919050565b6109bd610e78565b73ffffffffffffffffffffffffffffffffffffffff166109db610a3d565b73ffffffffffffffffffffffffffffffffffffffff1614610a31576040517f08c379a0000000000000000000000000000000000000000000000000000000008152600401610a2890612847565b60405180910390fd5b610a3b60006115c1565b565b6000600760009054906101000a900473ffffffffffffffffffffffffffffffffffffffff16905090565b606060018054610a7690612b30565b80601f0160208091040260200160405190810160405280929190818152602001828054610aa290612b30565b8015610aef5780601f10610ac457610100808354040283529160200191610aef565b820191906000526020600020905b815481529060010190602001808311610ad257829003601f168201915b5050505050905090565b610b0b610b04610e78565b8383611687565b5050565b610b20610b1a610e78565b83610f39565b610b5f576040517f08c379a0000000000000000000000000000000000000000000000000000000008152600401610b5690612887565b60405180910390fd5b610b6b848484846117f4565b50505050565b6060600c60008381526020019081526020016000208054610b9190612b30565b80601f0160208091040260200160405190810160405280929190818152602001828054610bbd90612b30565b8015610c0a5780601f10610bdf57610100808354040283529160200191610c0a565b820191906000526020600020905b815481529060010190602001808311610bed57829003601f168201915b50505050509050919050565b6000600560008473ffffffffffffffffffffffffffffffffffffffff1673ffffffffffffffffffffffffffffffffffffffff16815260200190815260200160002060008373ffffffffffffffffffffffffffffffffffffffff1673ffffffffffffffffffffffffffffffffffffffff16815260200190815260200160002060009054906101000a900460ff16905092915050565b610cb2610e78565b73ffffffffffffffffffffffffffffffffffffffff16610cd0610a3d565b73ffffffffffffffffffffffffffffffffffffffff1614610d26576040517f08c379a0000000000000000000000000000000000000000000000000000000008152600401610d1d90612847565b60405180910390fd5b600073ffffffffffffffffffffffffffffffffffffffff168173ffffffffffffffffffffffffffffffffffffffff161415610d96576040517f08c379a0000000000000000000000000000000000000000000000000000000008152600401610d8d906126c7565b60405180910390fd5b610d9f816115c1565b50565b60007f01ffc9a7000000000000000000000000000000000000000000000000000000007bffffffffffffffffffffffffffffffffffffffffffffffffffffffff1916827bffffffffffffffffffffffffffffffffffffffffffffffffffffffff1916149050919050565b60008073ffffffffffffffffffffffffffffffffffffffff166002600084815260200190815260200160002060009054906101000a900473ffffffffffffffffffffffffffffffffffffffff1673ffffffffffffffffffffffffffffffffffffffff1614159050919050565b600033905090565b816004600083815260200190815260200160002060006101000a81548173ffffffffffffffffffffffffffffffffffffffff021916908373ffffffffffffffffffffffffffffffffffffffff160217905550808273ffffffffffffffffffffffffffffffffffffffff16610ef38361084b565b73ffffffffffffffffffffffffffffffffffffffff167f8c5be1e5ebec7d5bd14f71427d1e84f3dd0314c0f7b2291e5b200ac8c7c3b92560405160405180910390a45050565b6000610f4482610e0c565b610f83576040517f08c379a0000000000000000000000000000000000000000000000000000000008152600401610f7a90612787565b60405180910390fd5b6000610f8e8361084b565b90508073ffffffffffffffffffffffffffffffffffffffff168473ffffffffffffffffffffffffffffffffffffffff161480610ffd57508373ffffffffffffffffffffffffffffffffffffffff16610fe5846104f5565b73ffffffffffffffffffffffffffffffffffffffff16145b8061100e575061100d8185610c16565b5b91505092915050565b8273ffffffffffffffffffffffffffffffffffffffff166110378261084b565b73ffffffffffffffffffffffffffffffffffffffff161461108d576040517f08c379a0000000000000000000000000000000000000000000000000000000008152600401611084906126e7565b60405180910390fd5b600073ffffffffffffffffffffffffffffffffffffffff168273ffffffffffffffffffffffffffffffffffffffff1614156110fd576040517f08c379a00000000000000000000000000000000000000000000000000000000081526004016110f490612727565b60405180910390fd5b611108838383611850565b611113600082610e80565b6001600360008573ffffffffffffffffffffffffffffffffffffffff1673ffffffffffffffffffffffffffffffffffffffff16815260200190815260200160002060008282546111639190612a3c565b925050819055506001600360008473ffffffffffffffffffffffffffffffffffffffff1673ffffffffffffffffffffffffffffffffffffffff16815260200190815260200160002060008282546111ba919061295b565b92505081905550816002600083815260200190815260200160002060006101000a81548173ffffffffffffffffffffffffffffffffffffffff021916908373ffffffffffffffffffffffffffffffffffffffff160217905550808273ffffffffffffffffffffffffffffffffffffffff168473ffffffffffffffffffffffffffffffffffffffff167fddf252ad1be2c89b69c2b068fc378daa952ba7f163c4a11628f55a4df523b3ef60405160405180910390a4611279838383611855565b505050565b600073ffffffffffffffffffffffffffffffffffffffff168273ffffffffffffffffffffffffffffffffffffffff1614156112ee576040517f08c379a00000000000000000000000000000000000000000000000000000000081526004016112e590612807565b60405180910390fd5b6112f781610e0c565b15611337576040517f08c379a000000000000000000000000000000000000000000000000000000000815260040161132e90612707565b60405180910390fd5b61134360008383611850565b6001600360008473ffffffffffffffffffffffffffffffffffffffff1673ffffffffffffffffffffffffffffffffffffffff1681526020019081526020016000206000828254611393919061295b565b92505081905550816002600083815260200190815260200160002060006101000a81548173ffffffffffffffffffffffffffffffffffffffff021916908373ffffffffffffffffffffffffffffffffffffffff160217905550808273ffffffffffffffffffffffffffffffffffffffff16600073ffffffffffffffffffffffffffffffffffffffff167fddf252ad1be2c89b69c2b068fc378daa952ba7f163c4a11628f55a4df523b3ef60405160405180910390a461145460008383611855565b5050565b60006114638261185a565b6040516020016114739190612578565b604051602081830303815290604052905061148d81611a07565b60405160200161149d91906125c6565b604051602081830303815290604052600c600084815260200190815260200160002090805190602001906114d2929190611d4b565b505050565b6000338484846040516020016114f0949392919061252e565b604051602081830303815290604052805190602001209050600b60009054906101000a900473ffffffffffffffffffffffffffffffffffffffff1673ffffffffffffffffffffffffffffffffffffffff1663446bffba826040518263ffffffff1660e01b8152600401611563919061266a565b602060405180830381600087803b15801561157d57600080fd5b505af1158015611591573d6000803e3d6000fd5b505050506040513d601f19601f820116820180604052508101906115b5919061207b565b600a8190555050505050565b6000600760009054906101000a900473ffffffffffffffffffffffffffffffffffffffff16905081600760006101000a81548173ffffffffffffffffffffffffffffffffffffffff021916908373ffffffffffffffffffffffffffffffffffffffff1602179055508173ffffffffffffffffffffffffffffffffffffffff168173ffffffffffffffffffffffffffffffffffffffff167f8be0079c531659141344cd1fd0a4f28419497f9722a3daafe3b4186f6b6457e060405160405180910390a35050565b8173ffffffffffffffffffffffffffffffffffffffff168373ffffffffffffffffffffffffffffffffffffffff1614156116f6576040517f08c379a00000000000000000000000000000000000000000000000000000000081526004016116ed90612747565b60405180910390fd5b80600560008573ffffffffffffffffffffffffffffffffffffffff1673ffffffffffffffffffffffffffffffffffffffff16815260200190815260200160002060008473ffffffffffffffffffffffffffffffffffffffff1673ffffffffffffffffffffffffffffffffffffffff16815260200190815260200160002060006101000a81548160ff0219169083151502179055508173ffffffffffffffffffffffffffffffffffffffff168373ffffffffffffffffffffffffffffffffffffffff167f17307eab39ab6107e8899845ad3d59bd9653f200f220920489ca2b5937696c31836040516117e7919061264f565b60405180910390a3505050565b6117ff848484611017565b61180b84848484611b91565b61184a576040517f08c379a0000000000000000000000000000000000000000000000000000000008152600401611841906126a7565b60405180910390fd5b50505050565b505050565b505050565b606060008214156118a2576040518060400160405280600181526020017f30000000000000000000000000000000000000000000000000000000000000008152509050611a02565b600082905060005b600082146118d45780806118bd90612b93565b915050600a826118cd91906129b1565b91506118aa565b60008167ffffffffffffffff811115611916577f4e487b7100000000000000000000000000000000000000000000000000000000600052604160045260246000fd5b6040519080825280601f01601f1916602001820160405280156119485781602001600182028036833780820191505090505b5090505b600085146119fb576001826119619190612a3c565b9150600a856119709190612c0a565b603061197c919061295b565b60f81b8183815181106119b8577f4e487b7100000000000000000000000000000000000000000000000000000000600052603260045260246000fd5b60200101907effffffffffffffffffffffffffffffffffffffffffffffffffffffffffffff1916908160001a905350600a856119f491906129b1565b945061194c565b8093505050505b919050565b6060600082511415611a2a57604051806020016040528060008152509050611b8c565b60006040518060600160405280604081526020016132fd6040913990506000600360028551611a59919061295b565b611a6391906129b1565b6004611a6f91906129e2565b67ffffffffffffffff811115611aae577f4e487b7100000000000000000000000000000000000000000000000000000000600052604160045260246000fd5b6040519080825280601f01601f191660200182016040528015611ae05781602001600182028036833780820191505090505b509050600182016020820185865187015b80821015611b4c576003820191508151603f8160121c168501518453600184019350603f81600c1c168501518453600184019350603f8160061c168501518453600184019350603f8116850151845360018401935050611af1565b5050600386510660018114611b685760028114611b7b57611b83565b603d6001830353603d6002830353611b83565b603d60018303535b50505080925050505b919050565b6000611bb28473ffffffffffffffffffffffffffffffffffffffff16611d28565b15611d1b578373ffffffffffffffffffffffffffffffffffffffff1663150b7a02611bdb610e78565b8786866040518563ffffffff1660e01b8152600401611bfd9493929190612603565b602060405180830381600087803b158015611c1757600080fd5b505af1925050508015611c4857506040513d601f19601f82011682018060405250810190611c4591906120cd565b60015b611ccb573d8060008114611c78576040519150601f19603f3d011682016040523d82523d6000602084013e611c7d565b606091505b50600081511415611cc3576040517f08c379a0000000000000000000000000000000000000000000000000000000008152600401611cba906126a7565b60405180910390fd5b805181602001fd5b63150b7a0260e01b7bffffffffffffffffffffffffffffffffffffffffffffffffffffffff1916817bffffffffffffffffffffffffffffffffffffffffffffffffffffffff191614915050611d20565b600190505b949350505050565b6000808273ffffffffffffffffffffffffffffffffffffffff163b119050919050565b828054611d5790612b30565b90600052602060002090601f016020900481019282611d795760008555611dc0565b82601f10611d9257805160ff1916838001178555611dc0565b82800160010185558215611dc0579182015b82811115611dbf578251825591602001919060010190611da4565b5b509050611dcd9190611dd1565b5090565b5b80821115611dea576000816000905550600101611dd2565b5090565b6000611e01611dfc846128e7565b6128c2565b905082815260208101848484011115611e1957600080fd5b611e24848285612aee565b509392505050565b600081359050611e3b81613289565b92915050565b600081359050611e50816132a0565b92915050565b600081519050611e65816132b7565b92915050565b600081359050611e7a816132ce565b92915050565b600081519050611e8f816132ce565b92915050565b600082601f830112611ea657600080fd5b8135611eb6848260208601611dee565b91505092915050565b600081359050611ece816132e5565b92915050565b600060208284031215611ee657600080fd5b6000611ef484828501611e2c565b91505092915050565b60008060408385031215611f1057600080fd5b6000611f1e85828601611e2c565b9250506020611f2f85828601611e2c565b9150509250929050565b600080600060608486031215611f4e57600080fd5b6000611f5c86828701611e2c565b9350506020611f6d86828701611e2c565b9250506040611f7e86828701611ebf565b9150509250925092565b60008060008060808587031215611f9e57600080fd5b6000611fac87828801611e2c565b9450506020611fbd87828801611e2c565b9350506040611fce87828801611ebf565b925050606085013567ffffffffffffffff811115611feb57600080fd5b611ff787828801611e95565b91505092959194509250565b6000806040838503121561201657600080fd5b600061202485828601611e2c565b925050602061203585828601611e41565b9150509250929050565b6000806040838503121561205257600080fd5b600061206085828601611e2c565b925050602061207185828601611ebf565b9150509250929050565b60006020828403121561208d57600080fd5b600061209b84828501611e56565b91505092915050565b6000602082840312156120b657600080fd5b60006120c484828501611e6b565b91505092915050565b6000602082840312156120df57600080fd5b60006120ed84828501611e80565b91505092915050565b60006020828403121561210857600080fd5b600061211684828501611ebf565b91505092915050565b61212881612a70565b82525050565b61213f61213a82612a70565b612bdc565b82525050565b61214e81612a82565b82525050565b61215d81612a8e565b82525050565b600061216e82612918565b612178818561292e565b9350612188818560208601612afd565b61219181612cf7565b840191505092915050565b60006121a782612923565b6121b1818561293f565b93506121c1818560208601612afd565b6121ca81612cf7565b840191505092915050565b60006121e082612923565b6121ea8185612950565b93506121fa818560208601612afd565b80840191505092915050565b6000612213604183612950565b915061221e82612d15565b604182019050919050565b600061223660328361293f565b915061224182612d8a565b604082019050919050565b600061225960268361293f565b915061226482612dd9565b604082019050919050565b600061227c60258361293f565b915061228782612e28565b604082019050919050565b600061229f601c8361293f565b91506122aa82612e77565b602082019050919050565b60006122c260248361293f565b91506122cd82612ea0565b604082019050919050565b60006122e560198361293f565b91506122f082612eef565b602082019050919050565b600061230860158361293f565b915061231382612f18565b602082019050919050565b600061232b602c8361293f565b915061233682612f41565b604082019050919050565b600061234e60388361293f565b915061235982612f90565b604082019050919050565b6000612371600183612950565b915061237c82612fdf565b600182019050919050565b6000612394602a8361293f565b915061239f82613008565b604082019050919050565b60006123b760298361293f565b91506123c282613057565b604082019050919050565b60006123da60208361293f565b91506123e5826130a6565b602082019050919050565b60006123fd600183612950565b9150612408826130cf565b600182019050919050565b6000612420602c8361293f565b915061242b826130f8565b604082019050919050565b600061244360208361293f565b915061244e82613147565b602082019050919050565b6000612466601983612950565b915061247182613170565b601982019050919050565b6000612489600183612950565b915061249482613199565b600182019050919050565b60006124ac60218361293f565b91506124b7826131c2565b604082019050919050565b60006124cf601d83612950565b91506124da82613211565b601d82019050919050565b60006124f260318361293f565b91506124fd8261323a565b604082019050919050565b61251181612ae4565b82525050565b61252861252382612ae4565b612c00565b82525050565b600061253a828761212e565b60148201915061254a828661212e565b60148201915061255a8285612517565b60208201915061256a82846121d5565b915081905095945050505050565b60006125838261247c565b915061258e82612459565b915061259a82846121d5565b91506125a582612364565b91506125b082612206565b91506125bb826123f0565b915081905092915050565b60006125d1826124c2565b91506125dd82846121d5565b915081905092915050565b60006020820190506125fd600083018461211f565b92915050565b6000608082019050612618600083018761211f565b612625602083018661211f565b6126326040830185612508565b81810360608301526126448184612163565b905095945050505050565b60006020820190506126646000830184612145565b92915050565b600060208201905061267f6000830184612154565b92915050565b6000602082019050818103600083015261269f818461219c565b905092915050565b600060208201905081810360008301526126c081612229565b9050919050565b600060208201905081810360008301526126e08161224c565b9050919050565b600060208201905081810360008301526127008161226f565b9050919050565b6000602082019050818103600083015261272081612292565b9050919050565b60006020820190508181036000830152612740816122b5565b9050919050565b60006020820190508181036000830152612760816122d8565b9050919050565b60006020820190508181036000830152612780816122fb565b9050919050565b600060208201905081810360008301526127a08161231e565b9050919050565b600060208201905081810360008301526127c081612341565b9050919050565b600060208201905081810360008301526127e081612387565b9050919050565b60006020820190508181036000830152612800816123aa565b9050919050565b60006020820190508181036000830152612820816123cd565b9050919050565b6000602082019050818103600083015261284081612413565b9050919050565b6000602082019050818103600083015261286081612436565b9050919050565b600060208201905081810360008301526128808161249f565b9050919050565b600060208201905081810360008301526128a0816124e5565b9050919050565b60006020820190506128bc6000830184612508565b92915050565b60006128cc6128dd565b90506128d88282612b62565b919050565b6000604051905090565b600067ffffffffffffffff82111561290257612901612cc8565b5b61290b82612cf7565b9050602081019050919050565b600081519050919050565b600081519050919050565b600082825260208201905092915050565b600082825260208201905092915050565b600081905092915050565b600061296682612ae4565b915061297183612ae4565b9250827fffffffffffffffffffffffffffffffffffffffffffffffffffffffffffffffff038211156129a6576129a5612c3b565b5b828201905092915050565b60006129bc82612ae4565b91506129c783612ae4565b9250826129d7576129d6612c6a565b5b828204905092915050565b60006129ed82612ae4565b91506129f883612ae4565b9250817fffffffffffffffffffffffffffffffffffffffffffffffffffffffffffffffff0483118215151615612a3157612a30612c3b565b5b828202905092915050565b6000612a4782612ae4565b9150612a5283612ae4565b925082821015612a6557612a64612c3b565b5b828203905092915050565b6000612a7b82612ac4565b9050919050565b60008115159050919050565b6000819050919050565b60007fffffffff0000000000000000000000000000000000000000000000000000000082169050919050565b600073ffffffffffffffffffffffffffffffffffffffff82169050919050565b6000819050919050565b82818337600083830152505050565b60005b83811015612b1b578082015181840152602081019050612b00565b83811115612b2a576000848401525b50505050565b60006002820490506001821680612b4857607f821691505b60208210811415612b5c57612b5b612c99565b5b50919050565b612b6b82612cf7565b810181811067ffffffffffffffff82111715612b8a57612b89612cc8565b5b80604052505050565b6000612b9e82612ae4565b91507fffffffffffffffffffffffffffffffffffffffffffffffffffffffffffffffff821415612bd157612bd0612c3b565b5b600182019050919050565b6000612be782612bee565b9050919050565b6000612bf982612d08565b9050919050565b6000819050919050565b6000612c1582612ae4565b9150612c2083612ae4565b925082612c3057612c2f612c6a565b5b828206905092915050565b7f4e487b7100000000000000000000000000000000000000000000000000000000600052601160045260246000fd5b7f4e487b7100000000000000000000000000000000000000000000000000000000600052601260045260246000fd5b7f4e487b7100000000000000000000000000000000000000000000000000000000600052602260045260246000fd5b7f4e487b7100000000000000000000000000000000000000000000000000000000600052604160045260246000fd5b6000601f19601f8301169050919050565b60008160601b9050919050565b7f20226465736372697074696f6e223a2022416e20657865726369736520696e2060008201527f7573696e67204d65726b6c6520547265657320746f2073746f7265206461746160208201527f2200000000000000000000000000000000000000000000000000000000000000604082015250565b7f4552433732313a207472616e7366657220746f206e6f6e20455243373231526560008201527f63656976657220696d706c656d656e7465720000000000000000000000000000602082015250565b7f4f776e61626c653a206e6577206f776e657220697320746865207a65726f206160008201527f6464726573730000000000000000000000000000000000000000000000000000602082015250565b7f4552433732313a207472616e736665722066726f6d20696e636f72726563742060008201527f6f776e6572000000000000000000000000000000000000000000000000000000602082015250565b7f4552433732313a20746f6b656e20616c7265616479206d696e74656400000000600082015250565b7f4552433732313a207472616e7366657220746f20746865207a65726f2061646460008201527f7265737300000000000000000000000000000000000000000000000000000000602082015250565b7f4552433732313a20617070726f766520746f2063616c6c657200000000000000600082015250565b7f616c6c20746f6b656e7320617265206d696e7465640000000000000000000000600082015250565b7f4552433732313a206f70657261746f7220717565727920666f72206e6f6e657860008201527f697374656e7420746f6b656e0000000000000000000000000000000000000000602082015250565b7f4552433732313a20617070726f76652063616c6c6572206973206e6f74206f7760008201527f6e6572206e6f7220617070726f76656420666f7220616c6c0000000000000000602082015250565b7f2200000000000000000000000000000000000000000000000000000000000000600082015250565b7f4552433732313a2062616c616e636520717565727920666f7220746865207a6560008201527f726f206164647265737300000000000000000000000000000000000000000000602082015250565b7f4552433732313a206f776e657220717565727920666f72206e6f6e657869737460008201527f656e7420746f6b656e0000000000000000000000000000000000000000000000602082015250565b7f4552433732313a206d696e7420746f20746865207a65726f2061646472657373600082015250565b7f7d00000000000000000000000000000000000000000000000000000000000000600082015250565b7f4552433732313a20617070726f76656420717565727920666f72206e6f6e657860008201527f697374656e7420746f6b656e0000000000000000000000000000000000000000602082015250565b7f4f776e61626c653a2063616c6c6572206973206e6f7420746865206f776e6572600082015250565b7f20226e616d65223a2020224d65726b6c6520546f6b656e202300000000000000600082015250565b7f7b00000000000000000000000000000000000000000000000000000000000000600082015250565b7f4552433732313a20617070726f76616c20746f2063757272656e74206f776e6560008201527f7200000000000000000000000000000000000000000000000000000000000000602082015250565b7f646174613a6170706c69636174696f6e2f6a736f6e3b6261736536342c000000600082015250565b7f4552433732313a207472616e736665722063616c6c6572206973206e6f74206f60008201527f776e6572206e6f7220617070726f766564000000000000000000000000000000602082015250565b61329281612a70565b811461329d57600080fd5b50565b6132a981612a82565b81146132b457600080fd5b50565b6132c081612a8e565b81146132cb57600080fd5b50565b6132d781612a98565b81146132e257600080fd5b50565b6132ee81612ae4565b81146132f957600080fd5b5056fe4142434445464748494a4b4c4d4e4f505152535455565758595a6162636465666768696a6b6c6d6e6f707172737475767778797a303132333435363738392b2fa2646970667358221220b01e4a038624b5b073489e7f38b17db217e25e7ee8f0f5f03cb301328a92166664736f6c6343000801003360806040523480156200001157600080fd5b5060405162000e8538038062000e85833981810160405281019062000037919062000242565b620000576200004b620000ee60201b60201c565b620000f660201b60201c565b8067ffffffffffffffff81111562000098577f4e487b7100000000000000000000000000000000000000000000000000000000600052604160045260246000fd5b604051908082528060200260200182016040528015620000c75781602001602082028036833780820191505090505b5060019080519060200190620000df929190620001ba565b50806002819055505062000292565b600033905090565b60008060009054906101000a900473ffffffffffffffffffffffffffffffffffffffff169050816000806101000a81548173ffffffffffffffffffffffffffffffffffffffff021916908373ffffffffffffffffffffffffffffffffffffffff1602179055508173ffffffffffffffffffffffffffffffffffffffff168173ffffffffffffffffffffffffffffffffffffffff167f8be0079c531659141344cd1fd0a4f28419497f9722a3daafe3b4186f6b6457e060405160405180910390a35050565b828054828255906000526020600020908101928215620001f9579160200282015b82811115620001f8578251825591602001919060010190620001db565b5b5090506200020891906200020c565b5090565b5b80821115620002275760008160009055506001016200020d565b5090565b6000815190506200023c8162000278565b92915050565b6000602082840312156200025557600080fd5b600062000265848285016200022b565b91505092915050565b6000819050919050565b62000283816200026e565b81146200028f57600080fd5b50565b610be380620002a26000396000f3fe608060405234801561001057600080fd5b50600436106100575760003560e01c8063446bffba1461005c578063715018a61461008c5780638da5cb5b14610096578063a58bb84a146100b4578063f2fde38b146100e4575b600080fd5b610076600480360381019061007191906107df565b610100565b6040516100839190610906565b60405180910390f35b6100946101b6565b005b61009e61023e565b6040516100ab91906108eb565b60405180910390f35b6100ce60048036038101906100c99190610808565b610267565b6040516100db9190610906565b60405180910390f35b6100fe60048036038101906100f991906107b6565b61033e565b005b600061010a610436565b73ffffffffffffffffffffffffffffffffffffffff1661012861023e565b73ffffffffffffffffffffffffffffffffffffffff161461017e576040517f08c379a000000000000000000000000000000000000000000000000000000000815260040161017590610941565b60405180910390fd5b60018290806001815401808255809150506001900390600052602060002001600090919091909150556101af61043e565b9050919050565b6101be610436565b73ffffffffffffffffffffffffffffffffffffffff166101dc61023e565b73ffffffffffffffffffffffffffffffffffffffff1614610232576040517f08c379a000000000000000000000000000000000000000000000000000000000815260040161022990610941565b60405180910390fd5b61023c60006106b3565b565b60008060009054906101000a900473ffffffffffffffffffffffffffffffffffffffff16905090565b6000610271610436565b73ffffffffffffffffffffffffffffffffffffffff1661028f61023e565b73ffffffffffffffffffffffffffffffffffffffff16146102e5576040517f08c379a00000000000000000000000000000000000000000000000000000000081526004016102dc90610941565b60405180910390fd5b8260018381548110610320577f4e487b7100000000000000000000000000000000000000000000000000000000600052603260045260246000fd5b906000526020600020018190555061033661043e565b905092915050565b610346610436565b73ffffffffffffffffffffffffffffffffffffffff1661036461023e565b73ffffffffffffffffffffffffffffffffffffffff16146103ba576040517f08c379a00000000000000000000000000000000000000000000000000000000081526004016103b190610941565b60405180910390fd5b600073ffffffffffffffffffffffffffffffffffffffff168173ffffffffffffffffffffffffffffffffffffffff16141561042a576040517f08c379a000000000000000000000000000000000000000000000000000000000815260040161042190610921565b60405180910390fd5b610433816106b3565b50565b600033905090565b600080600180548060200260200160405190810160405280929190818152602001828054801561048d57602002820191906000526020600020905b815481526020019060010190808311610479575b505050505090506000600280546104a491906109c8565b67ffffffffffffffff8111156104e3577f4e487b7100000000000000000000000000000000000000000000000000000000600052604160045260246000fd5b6040519080825280602002602001820160405280156105115781602001602082028036833780820191505090505b5090506000600254905060005b60018211156106685760005b8281101561064c5784818151811061056b577f4e487b7100000000000000000000000000000000000000000000000000000000600052603260045260246000fd5b6020026020010151856001836105819190610972565b815181106105b8577f4e487b7100000000000000000000000000000000000000000000000000000000600052603260045260246000fd5b60200260200101516040516020016105d19291906108bf565b60405160208183030381529060405280519060200120848381518110610620577f4e487b7100000000000000000000000000000000000000000000000000000000600052603260045260246000fd5b6020026020010181815250508161063690610a3f565b91506002816106459190610972565b905061052a565b508293506000905060028261066191906109c8565b915061051e565b836000815181106106a2577f4e487b7100000000000000000000000000000000000000000000000000000000600052603260045260246000fd5b602002602001015194505050505090565b60008060009054906101000a900473ffffffffffffffffffffffffffffffffffffffff169050816000806101000a81548173ffffffffffffffffffffffffffffffffffffffff021916908373ffffffffffffffffffffffffffffffffffffffff1602179055508173ffffffffffffffffffffffffffffffffffffffff168173ffffffffffffffffffffffffffffffffffffffff167f8be0079c531659141344cd1fd0a4f28419497f9722a3daafe3b4186f6b6457e060405160405180910390a35050565b60008135905061078681610b68565b92915050565b60008135905061079b81610b7f565b92915050565b6000813590506107b081610b96565b92915050565b6000602082840312156107c857600080fd5b60006107d684828501610777565b91505092915050565b6000602082840312156107f157600080fd5b60006107ff8482850161078c565b91505092915050565b6000806040838503121561081b57600080fd5b60006108298582860161078c565b925050602061083a858286016107a1565b9150509250929050565b61084d816109f9565b82525050565b61085c81610a0b565b82525050565b61087361086e82610a0b565b610a88565b82525050565b6000610886602683610961565b915061089182610af0565b604082019050919050565b60006108a9602083610961565b91506108b482610b3f565b602082019050919050565b60006108cb8285610862565b6020820191506108db8284610862565b6020820191508190509392505050565b60006020820190506109006000830184610844565b92915050565b600060208201905061091b6000830184610853565b92915050565b6000602082019050818103600083015261093a81610879565b9050919050565b6000602082019050818103600083015261095a8161089c565b9050919050565b600082825260208201905092915050565b600061097d82610a35565b915061098883610a35565b9250827fffffffffffffffffffffffffffffffffffffffffffffffffffffffffffffffff038211156109bd576109bc610a92565b5b828201905092915050565b60006109d382610a35565b91506109de83610a35565b9250826109ee576109ed610ac1565b5b828204905092915050565b6000610a0482610a15565b9050919050565b6000819050919050565b600073ffffffffffffffffffffffffffffffffffffffff82169050919050565b6000819050919050565b6000610a4a82610a35565b91507fffffffffffffffffffffffffffffffffffffffffffffffffffffffffffffffff821415610a7d57610a7c610a92565b5b600182019050919050565b6000819050919050565b7f4e487b7100000000000000000000000000000000000000000000000000000000600052601160045260246000fd5b7f4e487b7100000000000000000000000000000000000000000000000000000000600052601260045260246000fd5b7f4f776e61626c653a206e6577206f776e657220697320746865207a65726f206160008201527f6464726573730000000000000000000000000000000000000000000000000000602082015250565b7f4f776e61626c653a2063616c6c6572206973206e6f7420746865206f776e6572600082015250565b610b71816109f9565b8114610b7c57600080fd5b50565b610b8881610a0b565b8114610b9357600080fd5b50565b610b9f81610a35565b8114610baa57600080fd5b5056fea26469706673582212206656b366b0cd03c1d803b21e3141d9d6c0adf5df3c8a812a5a638d3929d128d164736f6c63430008010033",
  "linkReferences": {},
  "deployedLinkReferences": {}
}